:020000040800F2
:1000000050040020A9010008DF0D0008190D0008A8
:10001000DD0D0008B5020008D9100008000000003E
:10002000000000000000000000000000E30D0008D8
:10003000B702000800000000E10D0008E50D00080F
:10004000C3010008C3010008C3010008C301000880
:10005000C3010008C3010008C3010008C301000870
:10006000C3010008C3010008C3010008C301000860
:10007000C3010008C3010008C3010008C301000850
:10008000C3010008C3010008C3010008000000000C
:10009000000000000000000000000000C301000894
:1000A000C3010008C3010008C3010008C301000820
:1000B000C3010008C3010008C3010008C301000810
:1000C000C3010008C3010008C3010008C301000800
:1000D000C3010008CD100008C301000800000000A3
:1000E000C3010008C3010008C301000800000000AC
:1000F000000000000000000000000000C301000834
:1001000000000000C3010008C3010008C30100088B
:1001100000000000000000000000000000000000DF
:10012000C3010008C3010008C3010008C30100089F
:10013000C3010008000000000000000000000000F3
:10014000000000000000000000000000C3010008E3
:10015000C3010008C3010008C3010008C30100086F
:10016000C3010008C30100080000000000000000F7
:10017000000000000000000000000000000000007F
:1001800000000000C30100080000000000000000A3
:10019000C3010008DFF80CD000F07AF800480047EF
:1001A00019110008500400200648804706480047FF
:1001B000FEE7FEE7FEE7FEE7FEE7FEE7FEE7FEE717
:1001C000FEE7FEE7610E0008950100082DE9F05FEB
:1001D0000546002092469B468846064681464024B6
:1001E0001BE0284641464746224600F041F8534668
:1001F0005A46C01A914110D311461846224600F0C3
:1002000028F82D1A67EB01084F46224601200021ED
:1002100000F01FF817EB00094E41201EA4F1010465
:10022000DFDC484631462A464346BDE8F09FD2B25D
:1002300001E000F8012B491EFBD270470022F6E7CF
:1002400010B513460A4604461946FFF7F0FF20464C
:1002500010BD202A04DB203A00FA02F1002070478A
:100260009140C2F1200320FA03F3194390407047F4
:10027000202A04DB203A21FA02F00021704721FAFB
:1002800002F3D040C2F12002914008431946704762
:10029000064C074D06E0E06840F0010394E80700D3
:1002A00098471034AC42F6D3FFF778FF44110008AA
:1002B00064110008FEE77047704790F83510022976
:1002C00003D08021416501207047052180F8351059
:1002D0000068016821F00101016000207047000002
:1002E0002DE9F84F00224FF0010803254FF00F0EC3
:1002F0000B6808FA02F42340A34271D14E68012E24
:1003000005D0022E03D0112E01D0122E15D18668F1
:10031000570005FA07FC26EA0C06D1F80CC00CFAC7
:1003200007FC4CEA060CC0F808C04668A6430C79E6
:10033000C4F30014944034434460C668570005FA7F
:1003400007FC8C6826EA0C06BC403443C4604C6849
:10035000022C01D0122C13D1D40800EB8404A34644
:10036000D4F8209054074FEAD46A0EFA0AF629EA24
:1003700006090E6906FA0AF646EA0906CBF8206075
:1003800004680E7924EA0C0406F00306BE402643F6
:1003900006604C68E40056D52E4C266846F480462C
:1003A0002660246822F0030604F4804400942A4C5A
:1003B0003444A446D4F808489607370F0EFA07F6D7
:1003C000B443264EB04201D1002615E0244EB0427F
:1003D00001D1012610E0234EB04202D102260BE0EB
:1003E00031E0214EB04201D1032605E01F4EB0425C
:1003F00001D1042600E00726BE402643CCF8086859
:100400001B4E34684F689C43FF0300D51C43346087
:10041000174E361D34684F689C43BF0300D51C43FC
:100420003460134E083634684F689C43FF0200D591
:100430001C4334600E4E0C3634684F689C43BF0238
:1004400000D51C433460521C102AFFF451AFBDE8A4
:10045000F88F0000443802400030014000000240A4
:100460000004024000080240000C0240001002405C
:10047000003C01400AB1816170470904FBE70000BC
:100480000148806870470000000000200248816831
:100490000278114481607047000000200B4810B5BD
:1004A000016841F400710160016841F480610160FC
:1004B000016841F480710160032000F071F80020B0
:1004C00000F006F800F024F8002010BD003C0240C7
:1004D00070B50D4D04464FF47A712878B1FBF0F0F9
:1004E0000A490968B1FBF0F000F004FB48B9102C90
:1004F00007D200222146501E00F032F800206C6026
:1005000070BD012070BD0000000000200C00002024
:100510000B4882B0016841F480410160006800F43A
:10052000804000900648001F016841F08051016042
:10053000006800F080500090072002B000F030B852
:1005400044380240002809DB00F01F0201219140DD
:100550004009800000F1E020C0F800117047000061
:10056000F0B40E4B1B680C46C3F30223C3F107051E
:10057000042D00D90425191D072901D2002300E00C
:10058000DB1E012606FA05F1491E214099409E40D6
:10059000761E16403143F0BC00F09FBD0CED00E02C
:1005A000064900F0070208684FF6FF03184040EACA
:1005B0000220034A10430860704700000CED00E081
:1005C0000000FA052DE9F0470E46050065D0DFF87A
:1005D0001481D8F80000F7B200F00F00B04207D243
:1005E00088F80070D8F8000000F00F00B04254D135
:1005F00028683D4C810712D5400703D5206840F498
:10060000E05020602878000703D5206840F460405F
:1006100020602068A96820F0F00008432060287856
:10062000C0072DD0304968680839012812D0022847
:1006300013D0032811D00968890700292DDA216811
:1006400021F0030101432160FFF71AFF814641F2C7
:10065000883A0EE009688903EFE709688901ECE749
:10066000FFF70EFFA0EB0901514502D90320BDE8B9
:10067000F0872068696800F00C00B0EB810FEFD1C3
:10068000D8F80010404601F00F01B14207D90770B9
:10069000006800F00F00B04201D00120E7E72878A1
:1006A000400705D52068E96820F4E0500843206041
:1006B0002878000706D52068296920F4604040EAC0
:1006C000C100206000F038F82168084AC1F3031126
:1006D000515CC8400649086006480068FFF7F8FE0C
:1006E0000020C4E7003C0240083802402A110008FC
:1006F0000C00002004000020044805490068096837
:10070000044AC1F38221515CC84070470C000020AC
:10071000083802403A110008044805490068096891
:10072000044AC1F34231515CC84070470C000020BC
:10073000083802403A110008154810B5006810F05A
:100740000C02144813D04110042A0FD0082A0ED1ED
:100750000F4C241F2268236802F03F025B0207D57A
:100760002068C0F38810A0FB010106E0084610BD18
:100770002168C1F38811A1FB00010023FFF726FDCA
:100780002168C1F30141491C4900B0FBF1F010BDE3
:10079000083802400024F4002DE9F84F040076D018
:1007A0002078DFF838A3CE4DC00749D0DAF8001022
:1007B0005046C1F38101012908D00068C0F38100CF
:1007C00002280AD1281D0068400206D52868800347
:1007D00036D560680028E2D032E06068B0F5803F2E
:1007E00010D0B0F5A02F286810D020F480302860F9
:1007F000286820F4802028606068A0B1FFF740FEE0
:1008000006460CE0286840F48030F4E740F480208D
:100810002860F7E7FFF734FE801B642873D8286848
:100820008003F7D50CE0FFF72BFE064605E000BF7E
:10083000FFF726FE801B6428F0D828688003F7D4D1
:100840002078DFF8A08280074FF000093ED5DAF863
:100850000010504611F00C0F09D00068C0F3810061
:1008600002280BD19D48001F0068400206D428686A
:10087000800715D5E068012809D111E0E068B8B11A
:100880000120C8F80000FFF7FBFD064605E020E167
:10089000FFF7F6FD801B0228C0D828688007F7D52F
:1008A0002868216920F0F80040EAC10028600DE0C6
:1008B000C8F80090FFF7E4FD064604E0FFF7E0FD0E
:1008C000801B02281FD828688007F7D420780007EB
:1008D00022D5824E844861696C3671B10121016074
:1008E000FFF7CEFD074604E0FFF7CAFDC01B022854
:1008F00009D830688007F7D50EE0C0F80090FFF700
:10090000BFFD074605E082E0FFF7BAFDC01B0228E5
:100910007DD830688007F7D42078400768D5DFF8A5
:10092000BCB100270BF1380BDBF80000C0000BD482
:10093000DBF8001041F08051CBF80010DBF800002C
:10094000012700F080500090684E3068C00510D438
:10095000306840F480703060FFF792FD009005E051
:10096000FFF78EFD0099401A022850D83068C00564
:10097000F6D55A4EA068683601280FD00528306891
:1009800010D020F001003060306820F004003060AA
:10099000A068B8B1FFF774FD00900FE0306840F038
:1009A0000100F4E740F004003060F7E7FFF768FD6E
:1009B0000099411A41F28830814266D83068800738
:1009C000F4D50EE0FFF75CFD009007E0FFF758FD5F
:1009D0000099411A41F28830814256D83068800728
:1009E000F4D42FB1DBF8001021F08051CBF80010C7
:1009F000A069D0B3DAF800205146C2F38102022A7E
:100A00004AD00228484607D0C8F8600000E03CE021
:100A1000FFF736FD04463BE04746C8F86000FFF7A5
:100A20002FFD064605E000BFFFF72AFD801B0228C8
:100A30002BD828688001F7D4D4E907010843A16ABC
:100A40002B4A490802EB0141626A41EA82110843DC
:100A500094F82C1040EA01612048001F0160012039
:100A60003866FFF70DFD044605E034E0FFF708FDAA
:100A7000001B022809D828688001F7D52BE000BFA9
:100A8000FFF7FEFC001B022802D90320BDE8F88F07
:100A900028688001F4D41EE00128F7D00868E269D4
:100AA00000F48001914214D1226A00F03F0191428A
:100AB0000FD147F6C071626A0140914209D1A26A22
:100AC00000F44031914204D1E16A00F07060884244
:100AD00001D00120DAE70020D8E700000838024002
:100AE0000038024000004742800E4742007000403C
:100AF0000000FFFF10B5401EB0F1807F01D3012040
:100B000010BD4FF0E02460610F21601700F0E5FA9E
:100B10000020A06107202061002010BD7047000068
:100B200070B5026804461068D168536910F00F0F61
:100B300053D003F0010501F490762E435FD0C20735
:100B400005D0CA0503D5E26B42F00102E263420719
:100B500005D5DA0703D0E26B42F00202E2638207B6
:100B600005D5DA0703D0E26B42F00402E263020724
:100B700007D501F020022A4303D0E26B42F00802BD
:100B8000E263E26B002A34D0800604D5880602D5E1
:100B9000204600F089F920684069E16BC0F38010BD
:100BA00001F008010143204624D000F06FF92068CD
:100BB000416949061AD5416921F040014161606BE4
:100BC000A0B11B490165606BFFF777FB002810D0CF
:100BD000606B016DBDE87040084783060FD58B063A
:100BE0000DD52046BDE8704000F05EB92046FFF705
:100BF00095FF70BDFFF792FF0020E06370BD030614
:100C000006D50B0604D52046BDE8704000F02CBA8E
:100C10004006F3D54806F1D5D168204621F04001C1
:100C2000D160202184F8391000F075F870BD000003
:100C30007D0E000870B5040004D094F8390000253A
:100C400010B106E0012070BD84F83850204600F055
:100C500023F8242084F839002068C16821F4005169
:100C6000C160204600F06CF92068016921F49041D0
:100C700001612068416921F02A0141612068C16851
:100C800041F40051C160E563202084F8390084F804
:100C90003A00002070BD000010B586B00446142153
:100CA0006846FFF7CBFA18492068884229D11748CF
:100CB0000021026842F010020260006800F010009B
:100CC000059012481438026842F001020260006880
:100CD00000F0010005904FF4C06000900220CDE9C3
:100CE0000101032003900720049069460848FFF79C
:100CF000F7FA002211462520FFF732FC2520FFF7E6
:100D000021FC06B010BD0000001001404438024034
:100D10000000024070477047FEE7000030B587B022
:100D200014216846FFF78AFA1A480024016841F046
:100D300004010160016801F004010591016841F0BE
:100D400080010160016801F080010591016841F0B6
:100D5000010101600068104D00F0010005900022C3
:100D600020212846FFF786FB4FF4005000900B48E7
:100D7000CDE9010469460A48FFF7B2FA2020009045
:100D80000120CDE90104694628460394FFF7A8FA3B
:100D900007B030BD30380240000002400000211092
:100DA000000802400C4810B50A4901604FF4E131D7
:100DB0004160002181600C22C160C0E904128161A0
:100DC000C161FFF737FF002803D0BDE81040FFF7EF
:100DD00073BA10BD0010014010000020FEE77047FC
:100DE00070477047FFF752BB10B592B0302168468C
:100DF000FFF724FA14210CA8FFF720FA1648002464
:100E0000016841F080510160006800F0805011904D
:100E10001248016821F4404141F40041016000683A
:100E2000069400F4404011900220009001200390AD
:100E3000102004906846FFF7AFFC0F20CDE90C04AA
:100E40004FF48050CDE90E4000210CA81094FFF71C
:100E5000B9FB12B010BD00004038024000700040E5
:100E60000548016841F47001016003494FF00060DA
:100E7000803908607047000088ED00E010B5806B95
:100E80000021C185C184FFF749FE10BD0168CA6811
:100E900022F49072CA6001684A6922F001024A6134
:100EA000202180F83A10704710B590F83A102229A6
:100EB00001D0022010BD8168B1F5805F11D00169B9
:100EC000002901681FD0496801F07F03816A4A1C2C
:100ED00082620B70C18D491E0904090CC18518D0AE
:100EE0002BE00269816A002A0268526805D0D2B2FA
:100EF0000A80816A491C8162ECE7C2F308020A8019
:100F0000816A891CF7E74A68816A4B1C83620A7010
:100F1000E0E70168CA6822F02002CA600168CA6876
:100F200022F48072CA6001684A6922F001024A61B3
:100F3000202180F83A10FFF7EDFE002010BD0000E0
:100F40002DE9F041044600680169E26821F440514E
:100F5000114301612169A068E26908436169114395
:100F600008432168CA6849F20C639A430243CA6085
:100F700020684169A26921F4407111434161E0692F
:100F8000192764253226B0F5004F354A35492068C7
:100F90004FF0000806D0884201D0904236D1FFF7CA
:100FA000BBFB35E0884201D0904202D1FFF7B4FB91
:100FB00001E0FFF7A1FB61684A18A0FB070148EBBD
:100FC0000803FFF703F90146B0FBF5F00201B1FB9E
:100FD000F5F06FF01803584301EB800006EBC000FA
:100FE000B0FBF5F000F0F80002EB4002B1FBF5F0C9
:100FF000584301EB800006EBC000B0FBF5F000F0B9
:101000000700216810448860BDE8F081FFF774FB99
:1010100061688B0F8A00A0FB0701FFF7D7F8014634
:10102000B0FBF5F06FF01802504301EB800006EBC7
:101030000010B0FBF5F000F0F002B1FBF5F002EBB0
:101040000012B1FBF5F06FF01803584301EB80007C
:1010500006EB0010B0FBF5F000F00F00D1E7000048
:10106000001401400010014090F83910212901D0EE
:10107000022070478168B1F5805F016A0BD04A1C7D
:101080000262026809785160C18C491E0904090C8A
:10109000C1840ED017E009880268C1F308015160CD
:1010A00001690029016A02D0491C0162ECE7891C30
:1010B000FBE70168CA6822F08002CA600068C16864
:1010C00041F04001C1600020704700000148FFF777
:1010D00027BD000010000020FEE70907090E0028C8
:1010E00004DB00F1E02080F80014704700F00F00EE
:1010F00000F1E02080F8141D704702E008C8121FBC
:1011000008C1002AFAD170477047002001E001C1F0
:10111000121F002AFBD17047FFF7C0F9FFF764FEEA
:10112000FFF7FCFDFFF73EFEFEE7000000000000B9
:101130000000010203040607080900000000010284
:1011400003040000641100080000002010000000EB
:10115000FA1000087411000810000020400400007C
:101160000A1100080100000010000000000000004B
:041170000024F40063
:040000050800019559
:00000001FF
