:020000040800F2
:10000000B0040020A9010008F3110008D310000873
:10001000F1110008B5020008EF150008000000000B
:10002000000000000000000000000000F7110008C0
:10003000E902000800000000F51100082512000880
:10004000C3010008C3010008C3010008C301000880
:10005000C3010008C3010008C3010008C301000870
:10006000C3010008C3010008C3010008C301000860
:10007000C3010008C3010008C3010008C301000850
:10008000C3010008C3010008C3010008000000000C
:10009000000000000000000000000000C301000894
:1000A000C3010008C9120008C3010008C301000809
:1000B000C3010008C3010008C3010008C301000810
:1000C000C3010008C3010008C3010008C301000800
:1000D000C3010008C3010008C301000800000000BC
:1000E000EB020008C3010008C30100080000000083
:1000F000000000000000000000000000C301000834
:1001000000000000C3010008C3010008C30100088B
:1001100000000000000000000000000000000000DF
:10012000C3010008C3010008C3010008C30100089F
:10013000C3010008000000000000000000000000F3
:10014000000000000000000000000000C3010008E3
:10015000C3010008C3010008C3010008C30100086F
:10016000C3010008C30100080000000000000000F7
:10017000000000000000000000000000000000007F
:1001800000000000C30100080000000000000000A3
:10019000C3010008DFF80CD000F07AF800480047EF
:1001A0005D160008B0040020064880470648004756
:1001B000FEE7FEE7FEE7FEE7FEE7FEE7FEE7FEE717
:1001C000FEE7FEE7AD120008950100082DE9F05F9B
:1001D0000546002092469B468846064681464024B6
:1001E0001BE0284641464746224600F041F8534668
:1001F0005A46C01A914110D311461846224600F0C3
:1002000028F82D1A67EB01084F46224601200021ED
:1002100000F01FF817EB00094E41201EA4F1010465
:10022000DFDC484631462A464346BDE8F09FD2B25D
:1002300001E000F8012B491EFBD270470022F6E7CF
:1002400010B513460A4604461946FFF7F0FF20464C
:1002500010BD202A04DB203A00FA02F1002070478A
:100260009140C2F1200320FA03F3194390407047F4
:10027000202A04DB203A21FA02F00021704721FAFB
:1002800002F3D040C2F12002914008431946704762
:10029000064C074D06E0E06840F0010394E80700D3
:1002A00098471034AC42F6D3FFF778FFC416000825
:1002B000E4160008FEE70000044801688160416917
:1002C000002901D1012101617047000000000020D8
:1002D00004480168C1600169002901D00121416120
:1002E000704700000000002070474FF4005000F0FD
:1002F00025B8000010B54FF400510446884211D1D2
:100300000A4800F0EBF810B1FFF7E2FF0AE00848F6
:1003100000F0BAFC074A5068012803D1FFF7CCFF70
:10032000002050600448046010BD00000008024036
:100330002C00002000000020143C0140044910B5AE
:100340000A68024202D00860FFF7D4FF10BD000027
:10035000143C01402DE9F84FDFF860B100224FF066
:1003600003094FF00F0A0BF1040E01250B689540AD
:100370002B40AB4272D14C68012C05D0022C03D02B
:10038000112C01D0122C10D18668540009FA04F700
:10039000BE43CF68A740374387604468AC430D79BC
:1003A000C5F30015954025434560C468570009FA18
:1003B00007F58E68AC43BE402643C6604C68022CED
:1003C00001D0122C12D1D40800EB840CDCF8206090
:1003D0005407E40E0AFA04F826EA0806D1F8108059
:1003E00008FA04F848EA0608CCF820800468AC4310
:1003F0000D7905F00305BD40254305604C68E40018
:1004000056D52F4C256845F480452560246822F098
:10041000030504F4804400942A4C2E19D6F8087879
:100420009407250F0AFA05F4A743274CA04201D1EF
:10043000002415E0254CA04201D1012410E0244CF9
:10044000A04201D102240BE0224CA04201D103249E
:1004500006E0214CA04202D1042401E028E0072458
:10046000AC403C43C6F80848DBF800405D464E68A7
:100470009C43F60300D51C432C60DEF80040754613
:100480004E689C43B60300D51C432C600B4D0835C9
:100490002C684E689C43F60200D51C432C60074D27
:1004A0000C352C684E689C43B60200D51C432C606A
:1004B000521C102AFFF459AFBDE8F88F003C0140F0
:1004C0004438024000300140000002400004024075
:1004D00000080240000C0240001002400069084081
:1004E00000D0012070470AB1816170470904FBE721
:1004F00001488068704700001C00002002488168A5
:1005000002781144816070471C0000200B4810B530
:10051000016841F400710160016841F4806101608B
:10052000016841F480710160032000F071F800203F
:1005300000F006F800F024F8002010BD003C024056
:1005400070B50D4D04464FF47A712878B1FBF0F088
:100550000A490968B1FBF0F000F004FB48B9102C1F
:1005600007D200222146501E00F032F800206C60B5
:1005700070BD012070BD00001C000020280000207C
:100580000B4882B0016841F480410160006800F4CA
:10059000804000900648001F016841F080510160D2
:1005A000006800F080500090072002B000F030B8E2
:1005B00044380240002809DB00F01F02012191406D
:1005C0004009800000F1E020C0F8001170470000F1
:1005D000F0B40E4B1B68C3F30223C3F10704042CD1
:1005E00000D904241D1D072D01D2002300E0DB1ECD
:1005F000012606FA04F56D1E0D409D409E40761EB4
:10060000164045EA0601F0BC01F008B80CED00E028
:10061000064A00F0070110684FF6FF03184040EA51
:100620000120034908431060704700000CED00E012
:100630000000FA052DE9F0470D46040065D0DFF80B
:100640001491D9F80000EFB200F00F00A84207D2D1
:1006500089F80070D9F8000000F00F00A84254D1CA
:1006600020683D4E810712D5400703D5306840F41D
:10067000E05030602078000703D5306840F46040D7
:1006800030603068A16820F0F000084330602078C6
:10069000C0072DD0304960680839012812D00228DF
:1006A00013D0032811D00968890700292DDA316891
:1006B00021F0030101433160FFF71AFF804641F248
:1006C000883A0EE009688903EFE709688901ECE7D9
:1006D000FFF70EFFA0EB0801514502D90320BDE84A
:1006E000F0873068616800F00C00B0EB810FEFD14B
:1006F000D9F80010484601F00F01A94207D9077048
:10070000006800F00F00A84201D00120E7E7207840
:10071000400705D53068E16820F4E05008433060B8
:100720002078000706D53068216920F4604040EA4F
:10073000C100306000F038F83168084AC1F3031195
:10074000515CC8400649086006480068FFF7F8FE9B
:100750000020C4E7003C024008380240AC16000804
:10076000280000202000002004480549006809688E
:10077000044AC1F38221515CC84070472800002020
:1007800008380240BC16000804480549006809689A
:10079000044AC1F34231515CC84070472800002030
:1007A00008380240BC160008154810B5006810F063
:1007B0000C01144813D0431004290FD008290ED17E
:1007C0000F4C241F216801F03F022168490207D520
:1007D0002068C0F38810A0FB030106E0184610BD96
:1007E0002168C1F38811A1FB00010023FFF7EEFC93
:1007F0002168C1F30141491C4900B0FBF1F010BD73
:10080000083802400024F4002DE9F84F040075D0A8
:100810002078DFF828B3CA4DC00748D0DBF80010B5
:100820005846C1F38101012908D00068C0F3810056
:1008300002280AD1281D0068400206D528688003D6
:1008400035D560680028E2D031E06068B0F5803FBF
:1008500010D0B0F5A02F286810D020F48030286088
:10086000286820F4802028606068A0B1FFF740FE6F
:1008700006460CE0286840F48030F4E740F480201D
:100880002860F7E7FFF734FE801B642872D82868D9
:100890008003F7D50BE0FFF72BFE064604E0FFF7D9
:1008A00027FE801B6428F1D828688003F7D42078BD
:1008B000DFF8909280074FF0000A3ED5DBF8001079
:1008C000584611F00C0F09D00068C0F381000228CF
:1008D0000BD19A48001F0068400206D428688007A0
:1008E00015D5E068012809D111E0E068B8B1012010
:1008F000C9F80000FFF7FCFD064605E01AE1FFF726
:10090000F7FD801B0228C1D828688007F7D5286822
:10091000216920F0F80040EAC10028600DE0C9F824
:1009200000A0FFF7E5FD064604E0FFF7E1FD801BB0
:1009300002281FD828688007F7D42078000722D51E
:100940007E4F814861696C3771B101210160FFF709
:10095000CFFD064604E0FFF7CBFD801B022809D837
:1009600038688007F7D50EE0C0F800A0FFF7C0FD9B
:10097000064605E082E0FFF7BBFD801B02287DD81C
:1009800038688007F7D42078400765D56B484FF06A
:10099000000838300068C0000BD46848383001685F
:1009A00041F08051016000684FF0010800F0805074
:1009B0000090664F3868C0050FD4386840F48070E6
:1009C0003860FFF795FD064604E0FFF791FD801BB8
:1009D000022853D83868C005F7D5584FA068683743
:1009E00001280FD00528386810D020F001003860A9
:1009F000386820F004003860A068B0B1FFF778FDD7
:100A000006460EE0386840F00100F4E740F00400CC
:100A10003860F7E7FFF76CFD811B41F288308142B7
:100A200064D838688007F5D50DE0FFF761FD06460C
:100A300006E0FFF75DFD811B41F28830814255D809
:100A400038688007F5D4B8F1000F05D03B4838303E
:100A5000016821F080510160A069C0B3DBF800207B
:100A60005946C2F38102022A47D00228504606D0D6
:100A7000C9F86000FFF73CFD04463AE036E04F4617
:100A8000C9F86000FFF734FD064604E0FFF730FDCB
:100A9000801B02282AD828688001F7D4D4E90701EE
:100AA0000843A16A2A4A490802EB0141626A41EA05
:100AB0008211084394F82C1040EA01611F48001F7E
:100AC000016001203866FFF713FD044605E033E0BE
:100AD000FFF70EFD001B022808D828688001F7D513
:100AE0002AE0FFF705FD001B022802D90320BDE81C
:100AF000F88F28688001F4D41EE00128F7D0086838
:100B0000E26900F48001914214D1226A00F03F01B1
:100B100091420FD147F6C071626A0140914209D1FA
:100B2000A26A00F44031914204D1E16A00F07060A1
:100B3000884201D00120DAE70020D8E708380240D7
:100B40000038024000004742800E474200700040DB
:100B50000000FFFF02480168491C016000F03CBC36
:100B60000000002010B5401EB0F1807F01D30120AD
:100B700010BD4FF0E02460610F21601700F04EFDC2
:100B80000020A06107202061002010BD10B5FFF7F4
:100B9000E1FF10BD7047704770B590F83C20012A06
:100BA0002CD0012580F83C50022280F83D200268BC
:100BB0005368946823F070060B6833435360104BFE
:100BC00002689A420ED0B2F1804F0BD00D4B9A4280
:100BD00008D00D4B9A4205D00C4B9A4202D00C4BD8
:100BE0009A4204D1496824F080031943916080F847
:100BF0003D50002180F83C10084670BD022070BDB9
:100C0000000001400004004000080040000C0040CB
:100C10000040014010B5040003D094F83D0010B12D
:100C200007E0012010BD002084F83C00204600F0C1
:100C30000DF8022084F83D00211D206800F04AFBD9
:100C4000012084F83D00002010BD000008B50068B8
:100C50000B49884212D10B48016841F00101016043
:100C60000068002200F00100009011461920FFF7F3
:100C7000AFFCBDE808401920FFF79CBC08BD000090
:100C800000000140443802400168CA6842F0010295
:100C9000CA600068816801F00701062903D0016875
:100CA00041F001010160002070470168CA6822F02C
:100CB0000102CA600068016A41F21112114207D1B3
:100CC000016A9210114203D1016821F00101016013
:100CD0000020704770B5044690F83C00012817D0FA
:100CE000012584F83C50022084F83D002068826889
:100CF00022F0770222F47F4282600868502830D0C8
:100D00000DDC20284DD005DC98B310283BD148E0FD
:100D1000022070BD302844D0402834D139E060280A
:100D200028D0702806D0B0F5805F2CD0B0F5005FD9
:100D300029D10AE0CB68D1E90121206800F016FB37
:100D40002068816841F0770109E0CB68D1E9012191
:100D5000206800F00BFB2068816841F480418160CD
:100D600011E0CA684968206800F012FB5021206831
:100D700007E016E0CA684968206800F01AFB6021A5
:100D8000206800F0FDFA84F83D50002084F83C0013
:100D900070BDCA684968206800F0FAFA40212068EE
:100DA000EFE7226801461046EBE7704770B504464E
:100DB000006801694FF00005C943890715D4C1686F
:100DC000C943890711D4E91E0161012020772068F9
:100DD00080698007204602D0FFF7E7FF04E000F0BB
:100DE00098F8204600F096F8257720680169C943F5
:100DF000490717D4C168C943490713D46FF00401E8
:100E00000161022020772068806910F4407F20462D
:100E100002D0FFF7CAFF04E000F07BF8204600F0A4
:100E200079F8257720680169C943090716D4C16894
:100E3000C943090712D46FF008010161042020772B
:100E40002068C0698007204602D0FFF7AEFF04E0AB
:100E500000F05FF8204600F05DF825772068016912
:100E6000C943C90617D4C168C943C90613D46FF072
:100E700010010161082020772068C06910F4407FCC
:100E8000204602D0FFF791FF04E000F042F8204630
:100E900000F040F8257720680169C943C90708D1E7
:100EA000C168C943C90704D1891E0161204600F009
:100EB00033F820680169C943090609D4C168C943E8
:100EC000090605D46FF0800101612046FFF762FE3C
:100ED00020680169C943490609D4C168C943490664
:100EE00005D46FF040010161204600F02DF8206824
:100EF0000169C94389060BD4C168C943890607D46F
:100F00006FF0200101612046BDE87040FFF743BE4D
:100F100070BD70477047000010B54FF4005107488E
:100F2000FFF7DCFA002807D1054901204860BDE839
:100F300010400448FFF7B9BE10BD00000008024091
:100F4000000000202C000020704770B5040004D081
:100F500094F83900002510B106E0012070BD84F836
:100F60003850204600F022F8242084F83900206808
:100F7000C16821F40051C160204600F073FA206876
:100F8000016921F4904101612068416921F02A0141
:100F900041612068C16841F40051C160E5632020CF
:100FA00084F8390084F83A00002070BD10B586B08E
:100FB000044614216846FFF741F914492068884225
:100FC00021D113480021026842F01002026000683B
:100FD00000F0100005900E481438026842F001023B
:100FE0000260006800F0010005904FF4C0600090BE
:100FF0000220CDE9010103200390072004906946F7
:101000000448FFF7A7F906B010BD0000001001402A
:1010100044380240000002402DE9F843044690F8AD
:1010200039001E4617460D46202850D1B5B1AFB144
:1010300094F8380001284AD0012084F838004FF095
:101040000008C4F83C80212084F83900FFF750FAEA
:10105000A7848146E78484F8388026E00120BDE833
:10106000F883E08C401EE084A0684B46B0F5805FBA
:101070004FF000024FF080012046009603D000F0B0
:1010800085FAE8B90DE000F081FAC8B9288821682E
:10109000C0F308004860206908B16D1C05E0AD1C74
:1010A00003E0216815F8010B4860E08C0028D8D1D6
:1010B0004B46002240212046009600F067FA08B116
:1010C0000320CCE7202084F839000020C7E7022065
:1010D000C5E7FEE710B54FF0FF33062204A106482E
:1010E000FFF79AFF054800210161416110BD000032
:1010F0004C540D0D0A0000006C0000200000002080
:1011000070B586B014216846FFF798F81F4800258F
:10111000016841F004010160016801F004010591DA
:10112000016841F080010160016801F080010591D2
:10113000016841F0010101600068154E00F00100F6
:101140000590002220213046FFF7CDF94FF40050E2
:10115000009010480124CDE9010469460E48FFF7CC
:10116000F9F82020CDE900040220CDE90205694606
:101170003046FFF7EFF8002211462820FFF728FA43
:101180002820FFF717FA06B070BD00003038024083
:1011900000000240000031100008024010B586B087
:1011A00000241248009401940294039404940E497C
:1011B000059401604FF47A51C0E901143221C0E96D
:1011C000031444618461FFF725FD4FF480500090C3
:1011D00069460648FFF77EFD049404A90348059478
:1011E000FFF7DAFC06B010BD000001402C00002023
:1011F000FEE770477047704710B54FF0FF33062287
:1012000004A10648FFF708FF05480021016141617C
:1012100010BD000053540D0D0A0000006C000020AA
:101220000000002010B5FFF7B1FCBDE81040FFF74B
:1012300065B9000010B592B030216846FEF7FEFF98
:1012400014210CA8FEF7FAFF16480024016841F0AB
:1012500080510160006800F08050119012480168D0
:1012600021F4404141F4004101600068069400F41B
:101270004040119002200090012003901020049023
:101280006846FFF7C1FA0F20CDE90C044FF48050F7
:10129000CDE90E4000210CA81094FFF7CBF912B055
:1012A00010BD000040380240007000400548016851
:1012B00041F47001016003494FF00060803908601B
:1012C0007047000088ED00E00148FFF76FBD0000A7
:1012D0002C000020F0B502681D4C1E4D1E4E1F4F05
:1012E0004FF0804CA04207D0604505D0A84203D003
:1012F000B04201D0B84203D122F070034A681A43C9
:10130000A04210D060450ED0A8420CD0B0420AD006
:10131000B84208D0124B984205D0124B984202D0E6
:10132000114B984203D122F44073CA681A434B69A7
:1013300022F080021A4302608A68C2620A688262EE
:10134000A04201D10969016301214161F0BD0000A2
:10135000000001400004004000080040000C004074
:1013600000400140004401400048014010B584683D
:1013700042EA032224F47F440A432243826010BDE0
:10138000826822F070020A4342F0070181607047D0
:1013900010B5046A036A23F001030362836923F032
:1013A000F00343EA021324F00A020A438361026253
:1013B00010BD10B5036A23F0100303628469036A49
:1013C00024F4704444EA023223F0A00343EA0111FA
:1013D0008261016210BD00001E4830B4016900291D
:1013E00036D04169002933D0C1688268891A816189
:1013F00000210161416182694FF4FA74462A05D3E4
:101400008269A24202D830BCFFF7F6BE836940F27F
:10141000DC52A34205D98369934202D830BCFFF75E
:1014200059BE8369934207D9826940F6C4139A4230
:1014300002D830BC00F0DCB80161416141608161DB
:1014400030BC4FF0FF33062203A10548FFF7E4BD8F
:1014500030BC70470000002045540D0D0A0000000C
:101460006C0000202DE9F041044600680169E26843
:1014700021F4405111430161A1682069E2690143EF
:101480006069104301432068C26849F20C639A43C3
:101490000A43C26020684169A26921F44071114386
:1014A0004161E069192764253226B0F5004F354ABD
:1014B000354920684FF0000806D0884201D090429C
:1014C00036D1FFF761F935E0884201D0904202D170
:1014D000FFF75AF901E0FFF747F961684A18A0FBE6
:1014E000070148EB0803FEF771FE0146B0FBF5F07B
:1014F0000201B1FBF5F06FF01803584301EB8000D7
:1015000006EBC000B0FBF5F000F0F80002EB400283
:10151000B1FBF5F0584301EB800006EBC000B0FBD7
:10152000F5F000F00700216810448860BDE8F08104
:10153000FFF71AF901466068830F8200A1FB0701DB
:10154000FEF744FE0146B0FBF5F06FF01802504381
:1015500001EB800006EB0010B0FBF5F000F0F002AC
:10156000B1FBF5F002EB0012B1FBF5F06FF01803E0
:10157000584301EB800006EB0010B0FBF5F000F0E3
:101580000F00D0E700140140001001402DE9F041A8
:101590001E46174688460446069D1CE0681C1AD065
:1015A00025B1FEF7A5FF801BA84214D92068C168A9
:1015B00021F4D071C1602068416921F001014161CD
:1015C000202084F8390084F83A00002084F838009C
:1015D0000320BDE8F0812068016838EA010004D0EA
:1015E0000020B842DAD00020F3E70120F9E7FEE757
:1015F00010B54FF0FF33072204A10648FFF70CFD9A
:10160000054800210161416110BD0000564C540D98
:101610000D0A00006C000020000000200907090EE0
:10162000002804DB00F1E02080F80014704700F08F
:101630000F0000F1E02080F8141D704702E008C898
:10164000121F08C1002AFAD170477047002001E03C
:1016500001C1121F002AFBD170470000FEF756FFA0
:10166000FFF7E8FDFFF74CFDFFF798FD0C480B492D
:101670000C2201604FF4E131416000218160C160C2
:10168000C0E904128161C161FFF75FFC4FF0FF33D5
:10169000082204A10248FFF7BFFCFEE7001001404A
:1016A0006C000020546F79730D0D0A0000000000DB
:1016B0000000000001020304060708090000000002
:1016C00001020304E4160008000000202C000000C2
:1016D0003C160008101700082C00002084040000AD
:1016E0004C16000800000000000000000000000090
:1016F00000000000000000000000000000000000EA
:101700000100000010000000000000000024F400B0
:040000050800019559
:00000001FF
